S0100000616C7068617A65742E73726563BB
S113000045C0000028C100006EC100005DC00000B2
S11300105BC0000059C0000057C0000055C000007C
S113002053C0000051C000004FC000004DC000008C
S11300304BC0000049C0000047C0000045C000009C
S113004043C0000041C000003FC000003DC00000AC
S11300503BC0000039C0000037C0000035C00000BC
S113006033C0000031C000002FC000002DC00000CC
S11300702BC0000029C0000027C0000025C00000DC
S113008023C0000021C000001FC0000011241FBEB7
S1130090CFEFD0E1DEBFCDBF1BE0A0E0B1E0E8E1EF
S11300A0F4E100E00BBF02C007900D92AC33B1073E
S11300B0D9F72FE0ACE3BBE001C01D92AC34B2072A
S11300C0E1F762D10C940A0A9BCFCF93DF9341EE00
S11300D052E063E083E0F9D42FEF8FEF99E52150EC
S11300E080409040E1F700C0000076D442EF52E037
S11300F065E083E0EAD4C2E0D0E016C06C2F88E269
S11301000ED56C2F89E20BD56C2F8AE208D56C2FA3
S11301108BE205D52FEF8FE392E021508040904091
S1130120E1F700C000002196C038D1053CF354D457
S1130130C2E0D0E00DC06C2F88E253D56C2F89E269
S113014050D56C2F8AE24DD56C2F8BE24AD521967F
S1130150C038D10584F3DF91CF910895EF92FF92D7
S11301600F931F93CF93DF938C01E12CF12C24C0C8
S1130170F80124813581E89EF001E99EF00DF89E96
S1130180F00D1124EC0FFD1FE20FF31F80818F3F50
S113019031F0F801608586816C0F8E0DC0D42196F4
S11301A002C0C0E0D0E0F80180819181C817D9076E
S11301B0FCF2FFEFEF1AFF0AF80182819381E8163F
S11301C0F9067CF3DF91CF911F910F91FF90EF908F
S11301D00895EF92FF920F931F93CF93DF938C01B7
S11301E0E12CF12C24C0F80124813581E89EF00132
S11301F0E99EF00DF89EF00D1124EC0FFD1FE20FA7
S1130200F31F80818F3F31F0F801608586816C0F88
S11302108E0DE7D4219602C0C0E0D0E0F8018081C1
S11302209181C817D907FCF2FFEFEF1AFF0AF80112
S113023082819381E816F9067CF3DF91CF911F91B7
S11302400F91FF90EF90089583E089BF8EE0809333
S11302506A00789408951F920F920FB60F9211249A
S11302600BB60F922F933F934F935F936F937F93AC
S11302708F939F93AF93BF93CF93DF93EF93FF93AA
S1130280809104019091050185309105BCF0CCE387
S1130290DBE099878887CE019CDF809104019091EF
S11302A005010597909305018093040129EE37E039
S11302B03D832C8399878887CE0150DFFF91EF918E
S11302C0DF91CF91BF91AF919F918F917F916F916A
S11302D05F914F913F912F910F900BBE0F900FBEE6
S11302E00F901F9018951F920F920FB60F92112422
S11302F00BB60F922F933F934F935F936F937F931C
S11303008F939F93AF93BF93CF93DF93EF93FF9319
S11303102091040130910501A9014B5F5F4F809149
S11303203C0B90913D0B840F951F81389105BCF4D3
S1130330CCE3DBE039872887CE014BDF80910401D1
S1130340909105010596909305018093040127E996
S113035034E03D832C8399878887CE01FFDEFF91AB
S1130360EF91DF91CF91BF91AF919F918F917F9149
S11303706F915F914F913F912F910F900BBE0F9012
S11303800FBE0F901F901895CF93DF93CDB7DEB7B4
S1130390CA52D1400FB6F894DEBF0FBECDBF75D49C
S11303A053DF1AD332D391DEECE3FBE082E290E038
S11303B09183808389E190E09383828389EE97E03F
S11303C09583848387E290E09783868380910401F8
S11303D0909105019187808781E090E093878287DF
S11303E0CF53DF4F19821882C15CD040CD53DF4F09
S11303F019821882C35CD040CF01B0DEC12CD12C4D
S1130400812C912C2FEF3FEF8CE221503040804023
S1130410E1F700C00000C7D481709078992324F4D8
S113042001978E6F9F6F0196C114D10409F045C0E6
S1130430009721F0019709F443C03FC0CF53DF4F29
S113044008811981C15CD04008301105B4F5ABD4E2
S113045068E770E02BD49C01409714F02F503109C9
S1130460F801EE0FFF1FE00FF11FEE0FFF1FEE0F5D
S1130470FF1F81E090E08C0F9D1FE80FF91F81E0C2
S113048090E0938782878FE090E0918380839383C9
S1130490828386EB93E09583848387E090E097835F
S11304A0868331872087CF0159DE0F5F1F4FCF53DB
S11304B0DF4F19830883C15CD04000E010E0F2C034
S11304C0CD53DF4F08811981C35CD040083011053A
S11304D0A4F769D468E770E0E9D39C010C9714F0A1
S11304E02B503109F801EE0FFF1FE00FF11FEE0F43
S11304F0FF1FEE0FFF1F81E690E08C0F9D1FE80F9A
S1130500F91F81E090E0938782878BE090E09183EC
S113051080838FE090E09383828381E193E09583ED
S1130520848387E090E09783868331872087CF0197
S113053015DEC8010196CD53DF4F99838883C35CD0
S1130540D040BBCFF801EE0FFF1FE00FF11FEE0FFD
S1130550FF1FEE0FFF1F21E030E02C0F3D1FE20FC5
S1130560F31F82859385892B09F49AC0C114D104A1
S113057009F096C03FEF8FEF91E1315080409040F9
S1130580E1F700C000005801AA0CBB1CA00EB11E6C
S1130590AA0CBB1CAA0CBB1CE1E0F0E0EC0FFD1F95
S11305A0AE0EBF1EC50115DEC40199200CF40196E0
S11305B09595879508967801EE0CFF1CE00EF11EC8
S11305C0EE0CFF1CEE0CFF1C21E030E02C0F3D1F55
S11305D0E20EF31EF70126813781820F931F978362
S11305E08683C501BBDD2091420B3091430BF7019B
S11305F04681578182819381840F951F82179307C7
S1130600A4F1F701808591852091440B3091450B2D
S11306102817390754F540913C0B50913D0B240F9A
S1130620351F821793070CF5F70113861286C5014F
S1130630D0DD9FEF891A990A9F928F928DEF92E0F5
S11306409F938F937E01E7ECEE0EF11CFF92EF92E5
S1130650B8D3A70161E070E080E090E036D20F905B
S11306600F900F900F900F900F90F801EE0FFF1F57
S1130670E00FF11FEE0FFF1FEE0FFF1F21E030E030
S11306802C0F3D1FE20FF31F268137818281938156
S1130690820F931F803491051CF0CC24C394D12C79
S11306A00F5F1F4FCF53DF4FE880F980C15CD0400C
S11306B00E151F050CF446CF00E010E0B0C0F801A1
S11306C0EE0FFF1FE00FF11FEE0FFF1FEE0FFF1FD6
S11306D081E690E08C0F9D1FE80FF91F82859385BA
S11306E0892B09F49AC0C114D10409F096C09FEF74
S11306F0EFEFF1E19150E040F040E1F700C000007D
S11307003801660C771C600E711E660C771C660C33
S1130710771C21E630E02C0F3D1F620E731EC301CF
S113072058DDC40199200CF4019695958795089697
S11307305801AA0CBB1CA00EB11EAA0CBB1CAA0C0F
S1130740BB1CE1E6F0E0EC0FFD1FAE0EBF1EF50191
S113075026813781820F931F97838683C301FEDC32
S11307602091420B3091430BF501468157818281E0
S11307709381840F951F82179307A4F1F501808557
S113078091852091440B3091450B2817390754F576
S113079040913C0B50913D0B240F351F821793075A
S11307A00CF5F50113861286C30113DD9FEF891A38
S11307B0990A9F928F928DEF92E09F938F935E019F
S11307C0E7ECAE0EB11CBF92AF92FBD2A50161E083
S11307D070E080E090E079D10F900F900F900F902F
S11307E00F900F90F801EE0FFF1FE00FF11FEE0FB7
S11307F0FF1FEE0FFF1F21E630E02C0F3D1FE20F1D
S1130800F31F2681378182819381820F931F803465
S113081091051CF0CC24C394D12C0F5F1F4FCD53F2
S1130820DF4FA880B980C35CD0400A151B050CF4C7
S113083046CFC114D104A1F4E5CDC801880F991F96
S1130840800F911F880F991F880F991FE1E0F0E036
S1130850EC0FFD1F8E0F9F1FBCDC0F5F1F4F02C0EC
S113086000E010E00E151F0544F300E010E012C094
S1130870C801880F991F800F911F880F991F880F37
S1130880991F21E630E02C0F3D1F820F931FA1DC3E
S11308900F5F1F4F0A151B055CF39ED047E053E022
S11308A063E070E083E090E010D1ACCD93B190624E
S11308B093B991E39A95F1F7000093B19F7E93B9B0
S11308C093B19F7B93B993B1906893B98BBB81E348
S11308D08A95F1F7000083B18F7D83B9089593B1B0
S11308E0906293B991E39A95F1F7000093B19F7EDA
S11308F093B993B1906493B993B19F7793B98BBB38
S113090081E38A95F1F7000083B18F7D83B908955F
S113091093B1906293B991E39A95F1F7000093B182
S11309209F7E93B993B1906493B993B1906893B94E
S11309308BBB81E38A95F1F7000083B18F7D83B986
S1130940089593B1906293B991E39A95F1F70000F9
S113095093B1906193B993B19F7B93B993B190682C
S113096093B98BBB81E38A95F1F7000083B18F7D46
S113097083B9089593B1906293B991E39A95F1F78D
S1130980000093B1906193B993B1906493B993B11A
S11309909F7793B98BBB81E38A95F1F7000083B10C
S11309A08F7D83B9089593B1906293B991E39A9539
S11309B0F1F7000093B1906193B993B1906493B946
S11309C093B1906893B98BBB81E38A95F1F70000EA
S11309D083B18F7D83B908951F93CF93DF9318EB71
S11309E0D0E00DC0812F94DF80E492DFC0E003C02B
S11309F080E0D9DFCF5FC034D8F31F5FDF5FD8302A
S1130A0088F3DF91CF911F9108958FE381DF80EC0C
S1130A107FDF88EB7DDF80E47BCF08958093480BF4
S1130A2060934B0F885474DF80914B0F8A3048F4E5
S1130A30982F990F890F982F990F84E4890F36CF37
S1130A40089590E00A97982F990F890F982F990F7E
S1130A5080E4890F44CF0895CF93DF93D82FC0E06B
S1130A6026C080914B0F8A3088F48D2F90E08097B8
S1130A70FC01EE0FFF1FEE0FFF1FE80FF91FEA5FE7
S1130A80FE4FEC0FF11D80815CDF10C08D2F90E0D4
S1130A908097FC01EE0FFF1FEE0FFF1FE80FF91FF9
S1130AA0EA5FFE4FEC0FF11D808164DFCF5FC5303C
S1130AB0C0F280914B0F8A3018F480E042DF02C00C
S1130AC080E058DFDF91CF910895CF93DF93EA015F
S1130AD08093480B60934B0FA1DF0DC080914B0FA7
S1130AE08A3011F480E4FBDE8991B6DF80914B0FEC
S1130AF08F5F80934B0F88818111F0CFDF91CF916D
S1130B000895CF93C62F885403DFC03420F480E4C3
S1130B108C0FCCDE02C08C2FE2DECF910895EF92D1
S1130B20FF920F931F93CF93803408F054C0662331
S1130B300CF451C0282F269526952695982F97704A
S1130B4071F0913071F0923071F0933071F0943013
S1130B5071F0953071F0963071F490E40DC091E02D
S1130B600BC092E009C094E007C098E005C090E192
S1130B7003C090E201C090E8C62F022F10E0E62ED9
S1130B80F12CF801F695FE2FEE27F795E795E55B36
S1130B90F44FEE0DFF1D8081982B9083822FB1DFDF
S1130BA0C03468F41695102F002717950795055B38
S1130BB0144FF801EE0DFF1D8081C3DE0CC01695A5
S1130BC0102F002717950795055B144FF801EE0DBC
S1130BD0FF1D8081CFDECF911F910F91FF90EF9089
S1130BE00895CF93DF93803408F04CC066230CF44F
S1130BF049C0C82FC695C695C695877071F08130D7
S1130C0071F0823071F0833071F0843071F085308E
S1130C1071F0863071F480E40DC081E00BC082E095
S1130C2009C084E007C088E005C080E103C080E219
S1130C3001C080E8882361F090E8C99FF001112485
S1130C40E55BF44FE60FF11D809590818923808345
S1130C50D62F8C2F56DFD03458F480E8C89FF0018B
S1130C601124E55BF44FED0FF11D80816ADE0AC0AB
S1130C7090E8C99FF0011124E55BF44FED0FF11DDD
S1130C80808178DEDF91CF9108951BBA8FEF8ABB04
S1130C9088BB87BB15BA90EF94BB82BB11BA13B85B
S1130CA082B91092620010926100089597FB072E9A
S1130CB016F4009406D077FD08D01AD007FC05D0AE
S1130CC03EF4909581959F4F0895709561957F4F5F
S1130CD00895A29FB001B39FC001A39F700D811D11
S1130CE01124911DB29F700D811D1124911D089531
S1130CF0AA1BBB1B51E107C0AA1FBB1FA617B7073E
S1130D0010F0A61BB70B881F991F5A95A9F7809559
S1130D109095BC01CD0108958F929F92AF92BF929E
S1130D20CF92DF92EF92FF92CF93DF93EC01688131
S1130D3079818A819B81611571058105910521F471
S1130D4064E279ED8BE597E02DE133EF41E050E08B
S1130D5013D349015A019B01AC01A7EAB1E428D39A
S1130D606B017C01ACEEB4EFA50194012DD3DC0141
S1130D70CB018C0D9D1DAE1DBF1DB7FF03C0019798
S1130D80A109B04888839983AA83BB839F77DF91A5
S1130D90CF91FF90EF90DF90CF90BF90AF909F9056
S1130DA08F900895B9CF80E091E0B6CFA0E0B0E095
S1130DB08093000190930101A0930201B093030179
S1130DC008950F931F93CF93DF93CDB7DEB72E977C
S1130DD00FB6F894DEBF0FBECDBF0D891E8986E025
S1130DE08C831A8309838FEF9FE79E838D83AE01E3
S1130DF0475E5F4F6F89788DCE01019610D0EF81E9
S1130E00F885E00FF11F10822E960FB6F894DEBF1E
S1130E100FBECDBFDF91CF911F910F9108952F92F7
S1130E203F924F925F926F927F928F929F92AF9276
S1130E30BF92CF92DF92EF92FF920F931F93CF93C3
S1130E40DF93CDB7DEB72B970FB6F894DEBF0FBE96
S1130E50CDBF6C017B018A01FC011782168283815C
S1130E6081FFBFC1CE0101963C01F6019381F701D8
S1130E7093FD859193FF81917F01882309F4ADC18E
S1130E80853239F493FD859193FF81917F018532F9
S1130E9021F4B60190E0D6D1E8CF912C212C312C4D
S1130EA0FFE1F315D8F08B3279F038F4803279F021
S1130EB08332A1F4232D20611DC08D3261F0803373
S1130EC069F4232D216016C0832D8260382EE32D12
S1130ED0E4603E2E2AC0F32DF8601DC037FC2DC0FF
S1130EE020ED280F2A3040F08E32B9F436FC75C15B
S1130EF0232D2064322E19C036FE06C08AE0989E47
S1130F00200D1124922E11C0EAE02E9E200D1124F2
S1130F10222EF32DF0623F2E08C08C3621F4832D4F
S1130F208068382E02C0883641F4F70193FD85911C
S1130F3093FF81917F018111B3CF982F9F7D9554A9
S1130F40933028F40C5F1F4F9FE399830DC08336C1
S1130F5031F0833771F0833509F055C020C0F801B2
S1130F60808189830E5F1F4F88248394912C5301C1
S1130F7012C02801F2E04F0E511CF801A080B1808C
S1130F8036FE03C0692D70E002C06FEF7FEFC5012C
S1130F904ED14C018201F32DFF773F2E15C028015D
S1130FA022E0420E511CF801A080B18036FE03C03D
S1130FB0692D70E002C06FEF7FEFC5012DD14C01A8
S1130FC0F32DF0683F2E820133FC19C0822D90E08E
S1130FD088169906A0F4B60180E290E033D12A94F1
S1130FE0F5CFF50137FC859137FE81915F01B6019C
S1130FF090E028D121102A9421E0821A91088114CA
S1131000910479F7E1C0843611F0893639F5F80195
S113101037FE07C060817181828193810C5F1F4F0D
S113102008C060817181072E000C880B990B0E5F3C
S11310301F4FF32DFF763F2E97FF09C090958095A3
S1131040709561957F4F8F4F9F4FF0683F2E2AE038
S113105030E0A30133D1882E861844C0853731F49B
S1131060232D2F7EB22E2AE030E025C0932D997FC8
S1131070B92E8F36C1F018F4883579F0AEC08037B8
S113108019F0883721F0A9C0E92FE061BE2EB4FE23
S11310900DC0FB2DF460BF2E09C034FE0AC0292FF9
S11310A02660B22E06C028E030E005C020E130E022
S11310B002C020E132E0F801B7FE07C0608171810F
S11310C0828193810C5F1F4F06C06081718180E033
S11310D090E00E5F1F4FA301F1D0882E8618FB2DE0
S11310E0FF773F2E36FE0DC0232D2E7FA22E8914AE
S11310F058F434FE0BC032FC09C0832D8E7EA82E1A
S113110005C0B82CA32C03C0B82C01C0B92CA4FE74
S11311100FC0FE01E80DF11D8081803321F49A2D6A
S1131120997EA92E09C0A2FE06C0B394B39404C04C
S11311308A2D867809F0B394A3FC10C0A0FE06C0E3
S1131140B21480F4280C922C9B180DC0B21458F4DD
S1131150B60180E290E076D0B394F8CFB21418F4DC
S11311602B1802C0982C212CA4FE0FC0B60180E3DA
S113117090E068D0A2FE16C0A1FC03C088E790E00E
S113118002C088E590E0B6010CC08A2D867851F043
S1131190A1FE02C08BE201C080E2A7FC8DE2B60191
S11311A090E050D0891430F4B60180E390E04AD046
S11311B09A94F8CF8A94F301E80DF11D8081B60169
S11311C090E040D08110F6CF222009F44ECEB60133
S11311D080E290E037D02A94F7CFF6018681978198
S11311E002C08FEF9FEF2B960FB6F894DEBF0FBEB1
S11311F0CDBFDF91CF911F910F91FF90EF90DF90C2
S1131200CF90BF90AF909F908F907F906F905F90A2
S11312104F903F902F900895FC01059061507040CD
S11312200110D8F7809590958E0F9F1F0895FC01AB
S11312306150704001900110D8F7809590958E0F01
S11312409F1F08950F931F93CF93DF93FB01238177
S113125021FD03C08FEF9FEF2CC022FF16C04681F3
S11312605781248135814217530744F4A081B18109
S11312709D012F5F3F4F318320838C9326813781DB
S11312802F5F3F4F3783268314C08B01EC01FB0192
S11312900084F185E02D0995892BE1F6D801169695
S11312A08D919C911797019617969C938E93169700
S11312B0CE01DF91CF911F910F910895FA01AA27D2
S11312C0283051F1203181F1E8946F936E7F6E5F85
S11312D07F4F8F4F9F4FAF4FB1E03ED0B4E03CD033
S11312E0670F781F891F9A1FA11D680F791F8A1F16
S11312F0911DA11D6A0F711D811D911DA11D20D07D
S113130009F468943F912AE0269F11243019305D36
S11313103193DEF6CF010895462F4770405D419327
S1131320B3E00FD0C9F7F6CF462F4F70405D4A3374
S113133018F0495D31FD4052419302D0A9F7EACF3C
S1131340B4E0A6959795879577956795BA95C9F76B
S113135000976105710508959B01AC010A2E06945E
S11313605795479537952795BA95C9F7620F731F17
S1131370841F951FA01D0895052E97FB16F4009455
S11313800FD057FD05D024D007FC02D046F408C086
S113139050954095309521953F4F4F4F5F4F08959D
S11313A090958095709561957F4F8F4F9F4F0895CD
S11313B090DCA59F900DB49F900DA49F800D911D6E
S11313C011240895B7FFF4CFF3DF821B930B089524
S11313D0A1E21A2EAA1BBB1BFD010DC0AA1FBB1F35
S11313E0EE1FFF1FA217B307E407F50720F0A21BA7
S11313F0B30BE40BF50B661F771F881F991F1A9414
S113140069F760957095809590959B01AC01BD013D
S10B1410CF010895F894FFCF09
S1131418010000003200000000000000004F00003E
S11314280007000700147F147F14242A7F2A12233C
S11314381308646236495522500005030000001C55
S11314482241000041221C0014083E081408083EEA
S11314580808005030000008080808080060600008
S11314680020100804023E5149453E00427F4000D6
S113147842615149462141454B311814127F1027C6
S1131488454545393C4A49493001710905033649FE
S1131498494936064949291E0036360000005636A1
S11314A800000814224100141414141400412214D6
S11314B8080201510906324979413E7E1111117E13
S11314C87F494949363E414141227F4141221C7F9F
S11314D8494949417F090909013E4149497A7F0837
S11314E808087F00417F41002040413F017F0814E4
S11314F822417F404040407F020C027F7F04081055
S11315087F3E4141413E7F090909063E4151215E22
S11315187F09192946264949493201017F01013FBA
S11315284040403F1F2040201F3F4038403F631445
S113153808146307087008076151494543007F414F
S1131548410002040810200041417F000402010206
S113155804404040404000010204002054545478A0
S11315687F484444383844444420384444487F3805
S113157854545418087E0901020C5252523E7F08F2
S113158804047800047D00002040443D007F1028B6
S1131598440000417F40007C0418047C7C08040457
S11315A87838444444387C14141408081414187CF7
S11315B87C080404084854545420043F4440203C04
S11315C84040207C1C2040201C3C4030403C4428A7
S11315D81028440C5050503C4464544C4400083681
S11315E84100000077000000413608000804081094
S11315F808616C7068617A657427732067616D652A
S113160873004C4F4144494E472E2E2E0053636FAE
S113161872653A2025640047616D65204F766572CE
S113162800FFFFFFFFFFFFFFFFFFFFFFFFFF60A8B3
S1131638FFFFFFFFFFFFFFFFFFB240FFFFFFFFFFBA
S1131648FFFFFFFFFFB6B9FFFFFFFFFFFFFFFFFF2D
S1131658FFB9BAFFFFFFFFFFFFFFFFFFB9FFBAFFA4
S1131668FFFFFFFFFFFFFFB9FFBEFFFFFFFFFFFF05
S1131678FFFBBDFF91B1FFFFFFFFFF8188A9A5A173
S1131688C5C9FFFFFF8DA1C5E5EAC5E9E9D7FFFF95
S113169881A5C5C5E9C5C5C5DBFFFF85A1C5C5C508
S11316A88080AEFFFFFFFF60A0A080FFFFFFFFFF69
S11316B8FFFFFFB7B6FFFFFFFFFFFFFFFFFFFFFFBF
S11316C8FFFFFFFFFFFFFFFFFFFFFFFFFFFFFFFF1E
S11316D8FFFFFFFFFFFFFFFFFFFFFFFFFFFFFFFF0E
S11316E8FFFFFFFFFFFFFFFFDBB2FFFFFFFFADFBC5
S11316F8FFFFFFFFFFFFFF4040648DFF404060FF96
S1131708FFFFFFFFFF92408488848444FFFFFFFFAC
S1131718FFFFFFFFB2408488888884DBFFFFFFFF58
S1131728FFFFDB84C8846488888884FFFFFFFFFF89
S1131738FF89C8C8E8A86488888469FFFFFFFFFF99
S113174884E8C8C8E8C864886440FFFFFFFFFF84D2
S1131758E8C8C8C8E8A8444440FFFFFFFFFFA8C87A
S1131768C8C8C8E8C86444D7FFFFFFFFFFB2C8C8A9
S1131778C8E8C884D2FFFFFFFFFFFFFFFFA4C8A883
S1131788A464B2FFFFFFFFFFFFFFFFFFFFDBD6DB11
S1131798FFFFFFFFFFFFFFFFFFFFFFFFFFFFFFFF4D
S11317A8FFFFFFFFFFFFFFFFFFFFFFFFFFFFFFFF3D
S11317B8FFFFFFFFFFFFFFFFFFFFFFFFFFFFFFFF2D
S11317C8FFFFFFFFFFFFFFFFFFFFFFFFFFFFFFFF1D
S11317D8FFFFFFFFFFFFFFFFFFFFFFD6B291B6FF3A
S11317E8FFFFFFFFFFFFFFFFFFFFFFFFFFFFFFFFFD
S11317F8FFFFFFFFFFFFD66968FBFFFFFFD6B1B10C
S11318088DD6FFFFFFFFFFFFFFFFFFFFFFFFFFFF77
S1131818FFFFFFFFFFD6D6D2D2D6D6D2ADD6FA88EE
S113182888F6ADFAFFFFFFFFFFFFFFFFFFFFFFFF93
S1131838FFFFFFFFFFFFD68DD1D1D1F1D1D1D1D296
S1131848ADAD88F6F6F68DFFFFFFFFFFFFFFFFFF44
S1131858FFFFFFFFFFFFFFFFD6B1B1D1D1D1D1F117
S1131868D1D1D1D1F6F6F6F6D2B1FFFFFFFFFFFFD3
S1131878FFFFFFFFFFFFFFFFFFFF8DFAFAFAF6F6FF
S1131888D1D1D1D1D1D1F6F6894089D6F6FFFFFF5F
S1131898FFFFFFFFFFFFFFFFFFFFFF69FBFFFFFFE6
S11318A8FFFAFAD1D1F6ACD1D6ADAD6964F6D6D685
S11318B8FBFFFFFFFFFFFFFFFFFFFFFFFF92B2FBEE
S11318C8B2FFFFFFFAD1D1ADB1F6FBB2444440F602
S11318D8D6D668FFFFFFFFFFFFFFFFFFFFFFFFFFF5
S11318E8FFFFFFD6FFFFFAD1D1B1FAF6FFFFFFFFE2
S11318F8FBD6FFFA91FFFFFFFFFFFFFFFFFFFFFF8C
S1131908FFFFFFFFFFDBFFFBFAD1D1ADD2FAFFFFE8
S1131918FFFFB2FFFFB2B2FFFFFFFFFFFFFFFFFFB2
S1131928FFFFFFFFFFFFFFFFFBFFF6D1D1D1B1D6C9
S1131938FAFFFFFFDBDA9292FFFFFFFFFFFFFFFFD3
S1131948FFFFFFFFFFFFFFFFFFFFFBFBB1D1D1D17B
S1131958ADD1D6D6FBFFFFD6FFFFFFFFFFFFFFFF8A
S1131968FFFFFFFFFFFFFFFFFFFFFF91FFFFB1D165
S1131978D1D1ADF668F6FBB2FBFFFFFFFFFFFFFF17
S1131988FFFFFFFFFFFFFFFFFFFFFFFFFFFFFFFB5F
S1131998ADD1ADADADD1ADFBFFFFFFFFFFFFFFFF45
S11319A8FFFFFFFFFFFFFFFFFFFFFFFFFFFFB2FB8C
S11319B8FFD2ADD1ADADADD1F6ADFBFFB28DFFFF1A
S11319C8FFFFFFFFFFFFFFFFFFFFFFFFFFFFFFFF1B
S11319D8FFFBFFD1ADCD88ADD1ADB1B1FB68B1B2DC
S11319E8FFFFFFFFFFFFFFFFFFFFFFFFFFFFFFFFFB
S11319F8FFFFB6FFF6CDD1F5F1F1F6ADADD6FFB1E7
S1131A0868D6FFFFFFFFFFFFFFFFFFFFFFFFFFFF9A
S1131A18FFFFFFFFFFFFD688D1F1F6F6F688FAFF3D
S1131A28FFB18DD6FFFFFFFFFFFFFFFFFFFFFFFFA3
S1131A38FFFFFFFFFFFFFFFB89ADD1D1F2F6D1D144
S1131A48F6FFFFB1ADB2FFFFFFFFFFFFFFFFFFFF90
S1131A58FFFFFFFFFFFFFFFFFBFB88ADCDD1F6D1F2
S1131A68D1D6FAFFFFB1B169FFFFFFFFFFFFFFFF08
S1131A78FFFFFFFFFFFFFFFFFFFFB6FF89ADCDADFF
S1131A88D1D1F6ADFAFFFFD68D8DFFFFFFFFFFFF23
S1131A98FFFFFFFFFFFFFFFFFFFFFFFFD6FAD68818
S1131AA8D1D1ADD188D18DFBD68DB2FFFFFFFFFF19
S1131AB8FFFFFFFFFFFFFFFFFFFFFFFFFFFFFFB673
S1131AC8D668688D64ADB1D2B2D6FFD6B2FFFFFF37
S1131AD8FFFFFFFFFFFFFFFFFFFFFFFFFFFFFFFF0A
S1131AE8FFFFFBFBFAFAFBFBFFFBFFFFFFFFFFFF18
S1131AF8FFFFFFFFFFFFFFFFFFFFFFFFFFFFFFFFEA
S1131B08FFFFFFFFFFFFFFFFFFFFFFFFFFFFFFFFD9
S1131B18FFFFFFFFFFFFFFFFFFFFFFFFFFFFFFFFC9
S1131B28FFFFFFFFFFFFFFD6D6B2FBFFFFFFFFFF5C
S1131B38FFFFFFFFFFFFFFFFFFFFFFFFFFFFFFFFA9
S1131B48FFFFFFFFFFFFFFFFFB8DB1ADADFFFFFF01
S1131B58D6B2B2D6FBFFFFFFFFFFFFFFFFFFFFFF79
S1131B68FFFFFFFFFFFFFFFFFFFFD688D168ADFB34
S1131B78B2ADD2D2D2D2B1B1D6FFFFFFFFFFFFFF81
S1131B88FFFFFFFFFFFFFFFFFFFFFFD6D1D1F5AD3A
S1131B98ADB1D1D2D1D1D1D1D6D18DDAFFFFFFFFEA
S1131BA8FFFFFFFFFFFFFFFFFFFFFFFFB2D2D1F6EA
S1131BB8F5F5ADD1F1D1D1D1D2D1D1ADAD8DFFFFF4
S1131BC8FFFFFFFFFFFFFFFFFFFFFFFFFFB2F66905
S1131BD8448DF6F6D1ADF1F1D1F6D6D6FAFAFA8DEE
S1131BE8FBFFFFFFFFFFFFFFFFFFFFFFFFFFD6F62F
S1131BF8D644B2ADADF6D1ADF1D1D1FAFBFFFFFFBA
S1131C08FFFB92FFFFFFFFFFFFFFFFFFFFFFFF69DF
S1131C18B1D6D664446DB2FFD6ADADF1D1FAFFFFAB
S1131C28FFD6D6D692FFFFFFFFFFFFFFFFFFFFFFA0
S1131C38FFB2FBFFFAFBD6FFFFFFFAFAADD1D1D60C
S1131C48FFFFD6FFFFFFB6FFFFFFFFFFFFFFFFFF0A
S1131C58FFFFFFDBB2FFFFDBFFFFFFFFFAD2D1D1AB
S1131C68D1F6FFFFDBFFFFFFFFFFFFFFFFFFFFFFD3
S1131C78FFFFFFFFFFFFB2B2D6DBFFFFFFFAD6B1CB
S1131C88D1D1D1D6FBFFFBFFFFFFFFFFFFFFFFFF13
S1131C98FFFFFFFFFFFFFFFFFFDBDBFFFFFBD6D6E6
S1131CA8D6ADD1D1D1D1FBFFFBFFFFFFFFFFFFFF73
S1131CB8FFFFFFFFFFFFFFFFFFFFFFFFFF928DD630
S1131CC8F68DF6B1ADD1D1B1FFFFD7FFFFFFFFFF0E
S1131CD8FFFFFFFFFFFFFFFFFFFFFFFFFFFFFFD631
S1131CE8FFFFF68DD1ADADADD1ADFBFFDBFFFFFF3F
S1131CF8FFFFFFFFFFFFFFFFFFFFFFFFFFFFFFFFE8
S1131D08B28DFFFBB1F6ACADCDADADB1F6FFFBFFC7
S1131D18FFFFFFFFFFFFFFFFFFFFFFFFFFFFFFFFC7
S1131D28FFFFB2B2B2D28DADADADADD1ADADB1FBA9
S1131D38FFFBFFFFFFFFFFFFFFFFFFFFFFFFFFFFAB
S1131D48FFFFFFFFD669D6FFB18DADD1F6F1F6AD31
S1131D58ADD6FFDBFFFFFFFFFFFFFFFFFFFFFFFF26
S1131D68FFFFFFFFFFFFD68DD6FFFFD2ADF6D1D11F
S1131D78F5D188ADFAFBFFFFFFFFFFFFFFFFFFFF71
S1131D88FFFFFFFFFFFFFFFF8DB1D6FFFFD2D1D5C5
S1131D98D1F5F5D1AD88F6FBFFFFFFFFFFFFFFFF8D
S1131DA8FFFFFFFFFFFFFFFFFFFF8DB1D6FFFFB16E
S1131DB8D6D1F1F5D1ADAD88FBDBFFFFFFFFFFFF07
S1131DC8FFFFFFFFFFFFFFFFFFFFFFFFB269B2FF47
S1131DD8FFF6ADF6D1D1ADD1AD8DFFD6FFFFFFFF34
S1131DE8FFFFFFFFFFFFFFFFFFFFFFFFFFFFFB8D6D
S1131DF88DB6FBB1AD89D1D1D1D188D2FBDBFFFF40
S1131E08FFFFFFFFFFFFFFFFFFFFFFFFFFFFFFFFD6
S1131E18FFB28DFBB669B1AD8888886889D6D6FFCC
S1131E28FFFFFFFFFFFFFFFFFFFFFFFFFFFFFFFFB6
S1131E38FFFFFFFFFFFFFFFBF6FAFAFAFAFBFBFFCF
S10F1E48FFFFFFFFFFFFFFFFFFFFFF0095
S9030000FC
